{
  "contractName": "CapitalDistribution",
  "abi": [
    {
      "anonymous": false,
      "inputs": [
        {
          "indexed": true,
          "internalType": "address",
          "name": "token",
          "type": "address"
        },
        {
          "indexed": true,
          "internalType": "uint256",
          "name": "amount",
          "type": "uint256"
        },
        {
          "indexed": false,
          "internalType": "address",
          "name": "dest",
          "type": "address"
        },
        {
          "indexed": true,
          "internalType": "address",
          "name": "distributor",
          "type": "address"
        }
      ],
      "name": "DistributionSent",
      "type": "event"
    },
    {
      "anonymous": false,
      "inputs": [
        {
          "indexed": true,
          "internalType": "address",
          "name": "previousOwner",
          "type": "address"
        },
        {
          "indexed": true,
          "internalType": "address",
          "name": "newOwner",
          "type": "address"
        }
      ],
      "name": "OwnershipTransferred",
      "type": "event"
    },
    {
      "anonymous": false,
      "inputs": [
        {
          "indexed": false,
          "internalType": "address",
          "name": "account",
          "type": "address"
        }
      ],
      "name": "Paused",
      "type": "event"
    },
    {
      "anonymous": false,
      "inputs": [
        {
          "indexed": true,
          "internalType": "address",
          "name": "token",
          "type": "address"
        },
        {
          "indexed": true,
          "internalType": "uint256",
          "name": "amount",
          "type": "uint256"
        },
        {
          "indexed": true,
          "internalType": "address",
          "name": "dest",
          "type": "address"
        }
      ],
      "name": "TokenWithdrawn",
      "type": "event"
    },
    {
      "anonymous": false,
      "inputs": [
        {
          "indexed": false,
          "internalType": "address",
          "name": "account",
          "type": "address"
        }
      ],
      "name": "Unpaused",
      "type": "event"
    },
    {
      "inputs": [],
      "name": "owner",
      "outputs": [
        {
          "internalType": "address",
          "name": "",
          "type": "address"
        }
      ],
      "stateMutability": "view",
      "type": "function",
      "constant": true
    },
    {
      "inputs": [],
      "name": "paused",
      "outputs": [
        {
          "internalType": "bool",
          "name": "",
          "type": "bool"
        }
      ],
      "stateMutability": "view",
      "type": "function",
      "constant": true
    },
    {
      "inputs": [],
      "name": "renounceOwnership",
      "outputs": [],
      "stateMutability": "nonpayable",
      "type": "function"
    },
    {
      "inputs": [
        {
          "internalType": "address",
          "name": "newOwner",
          "type": "address"
        }
      ],
      "name": "transferOwnership",
      "outputs": [],
      "stateMutability": "nonpayable",
      "type": "function"
    },
    {
      "inputs": [
        {
          "internalType": "address",
          "name": "_token",
          "type": "address"
        },
        {
          "components": [
            {
              "internalType": "uint256",
              "name": "amount",
              "type": "uint256"
            },
            {
              "internalType": "address payable",
              "name": "dest",
              "type": "address"
            }
          ],
          "internalType": "struct CapitalDistribution.Distribution[]",
          "name": "_distributions",
          "type": "tuple[]"
        }
      ],
      "name": "distribute",
      "outputs": [],
      "stateMutability": "payable",
      "type": "function",
      "payable": true
    },
    {
      "inputs": [
        {
          "internalType": "address",
          "name": "_tokenAddress",
          "type": "address"
        },
        {
          "internalType": "address",
          "name": "_dest",
          "type": "address"
        }
      ],
      "name": "withdrawToken",
      "outputs": [],
      "stateMutability": "nonpayable",
      "type": "function"
    },
    {
      "inputs": [
        {
          "internalType": "address payable",
          "name": "_dest",
          "type": "address"
        }
      ],
      "name": "withdrawEther",
      "outputs": [],
      "stateMutability": "nonpayable",
      "type": "function"
    },
    {
      "inputs": [],
      "name": "pause",
      "outputs": [],
      "stateMutability": "nonpayable",
      "type": "function"
    },
    {
      "inputs": [],
      "name": "unpause",
      "outputs": [],
      "stateMutability": "nonpayable",
      "type": "function"
    }
  ],
  "bytecode": "0x608060405260006100176001600160e01b0361007716565b600080546001600160a01b0319166001600160a01b0383169081178255604051929350917f8be0079c531659141344cd1fd0a4f28419497f9722a3daafe3b4186f6b6457e0908290a3506000805460ff60a01b191690556001805561007b565b3390565b610fb78061008a6000396000f3fe6080604052600436106100865760003560e01c80638456cb59116100595780638456cb59146101025780638da5cb5b14610117578063af933b5714610139578063e542b93b14610159578063f2fde38b1461016c57610086565b80633aeac4e11461008b5780633f4ba83a146100ad5780635c975abb146100c2578063715018a6146100ed575b600080fd5b34801561009757600080fd5b506100ab6100a6366004610b02565b61018c565b005b3480156100b957600080fd5b506100ab61029c565b3480156100ce57600080fd5b506100d7610304565b6040516100e49190610c63565b60405180910390f35b3480156100f957600080fd5b506100ab610314565b34801561010e57600080fd5b506100ab610393565b34801561012357600080fd5b5061012c6103fa565b6040516100e49190610c12565b34801561014557600080fd5b506100ab610154366004610ae6565b610409565b6100ab610167366004610b3a565b6104a9565b34801561017857600080fd5b506100ab610187366004610ae6565b61069b565b610194610751565b6000546001600160a01b039081169116146101ca5760405162461bcd60e51b81526004016101c190610e0a565b60405180910390fd5b6040516370a0823160e01b81526000906001600160a01b038416906370a08231906101f9903090600401610c12565b60206040518083038186803b15801561021157600080fd5b505afa158015610225573d6000803e3d6000fd5b505050506040513d601f19601f820116820180604052506102499190810190610bdb565b9050816001600160a01b031681846001600160a01b03167fa0524ee0fd8662d6c046d199da2a6d3dc49445182cec055873a5bb9c2843c8e060405160405180910390a4610297838383610755565b505050565b6102a4610751565b6000546001600160a01b039081169116146102d15760405162461bcd60e51b81526004016101c190610e0a565b600054600160a01b900460ff166102fa5760405162461bcd60e51b81526004016101c190610ca1565b6103026107ab565b565b600054600160a01b900460ff1690565b61031c610751565b6000546001600160a01b039081169116146103495760405162461bcd60e51b81526004016101c190610e0a565b600080546040516001600160a01b03909116907f8be0079c531659141344cd1fd0a4f28419497f9722a3daafe3b4186f6b6457e0908390a3600080546001600160a01b0319169055565b61039b610751565b6000546001600160a01b039081169116146103c85760405162461bcd60e51b81526004016101c190610e0a565b600054600160a01b900460ff16156103f25760405162461bcd60e51b81526004016101c190610de0565b610302610821565b6000546001600160a01b031690565b610411610751565b6000546001600160a01b0390811691161461043e5760405162461bcd60e51b81526004016101c190610e0a565b60405147906001600160a01b03831690829073eeeeeeeeeeeeeeeeeeeeeeeeeeeeeeeeeeeeeeee907fa0524ee0fd8662d6c046d199da2a6d3dc49445182cec055873a5bb9c2843c8e090600090a46104a56001600160a01b0383168263ffffffff61088716565b5050565b600260015414156104cc5760405162461bcd60e51b81526004016101c190610f06565b6002600155600054600160a01b900460ff16156104fb5760405162461bcd60e51b81526004016101c190610de0565b6000805b82811015610671573384848381811061051457fe5b90506040020160000135866001600160a01b03167f307e49bc790d2c4104143bce46f9a007d0870a8f6644f23dd937109c2aa281b187878681811061055557fe5b905060400201602001602061056d9190810190610ae6565b60405161057a9190610c12565b60405180910390a46001600160a01b03851673eeeeeeeeeeeeeeeeeeeeeeeeeeeeeeeeeeeeeeee146105ef576105ea85338686858181106105b757fe5b90506040020160200160206105cf9190810190610ae6565b8787868181106105db57fe5b90506040020160000135610923565b610669565b6106418484838181106105fe57fe5b9050604002016000013585858481811061061457fe5b905060400201602001602061062c9190810190610ae6565b6001600160a01b03169063ffffffff61088716565b61066684848381811061065057fe5b859260409091020135905063ffffffff61094a16565b91505b6001016104ff565b508034146106915760405162461bcd60e51b81526004016101c190610e3f565b5050600180555050565b6106a3610751565b6000546001600160a01b039081169116146106d05760405162461bcd60e51b81526004016101c190610e0a565b6001600160a01b0381166106f65760405162461bcd60e51b81526004016101c190610ccf565b600080546040516001600160a01b03808516939216917f8be0079c531659141344cd1fd0a4f28419497f9722a3daafe3b4186f6b6457e091a3600080546001600160a01b0319166001600160a01b0392909216919091179055565b3390565b6102978363a9059cbb60e01b8484604051602401610774929190610c4a565b60408051601f198184030181529190526020810180516001600160e01b03166001600160e01b031990931692909217909152610976565b600054600160a01b900460ff166107d45760405162461bcd60e51b81526004016101c190610ca1565b6000805460ff60a01b191690557f5db9ee0a495bf2e6ff9c91a7834c1ba4fdd244a5e8aa4e537bd38aeae4b073aa61080a610751565b6040516108179190610c12565b60405180910390a1565b600054600160a01b900460ff161561084b5760405162461bcd60e51b81526004016101c190610de0565b6000805460ff60a01b1916600160a01b1790557f62e78cea01bee320cd4e420270b5ea74000d11b0c9f74754ebdbfc544b05a25861080a610751565b804710156108a75760405162461bcd60e51b81526004016101c190610da9565b6000826001600160a01b0316826040516108c090610c0f565b60006040518083038185875af1925050503d80600081146108fd576040519150601f19603f3d011682016040523d82523d6000602084013e610902565b606091505b50509050806102975760405162461bcd60e51b81526004016101c190610d4c565b610944846323b872dd60e01b85858560405160240161077493929190610c26565b50505050565b60008282018381101561096f5760405162461bcd60e51b81526004016101c190610d15565b9392505050565b60606109cb826040518060400160405280602081526020017f5361666545524332303a206c6f772d6c6576656c2063616c6c206661696c6564815250856001600160a01b0316610a059092919063ffffffff16565b80519091501561029757808060200190516109e99190810190610bbb565b6102975760405162461bcd60e51b81526004016101c190610ebc565b6060610a148484600085610a1c565b949350505050565b6060610a2785610ae0565b610a435760405162461bcd60e51b81526004016101c190610e85565b60006060866001600160a01b03168587604051610a609190610bf3565b60006040518083038185875af1925050503d8060008114610a9d576040519150601f19603f3d011682016040523d82523d6000602084013e610aa2565b606091505b50915091508115610ab6579150610a149050565b805115610ac65780518082602001fd5b8360405162461bcd60e51b81526004016101c19190610c6e565b3b151590565b600060208284031215610af7578081fd5b813561096f81610f69565b60008060408385031215610b14578081fd5b8235610b1f81610f69565b91506020830135610b2f81610f69565b809150509250929050565b600080600060408486031215610b4e578081fd5b8335610b5981610f69565b9250602084013567ffffffffffffffff80821115610b75578283fd5b81860187601f820112610b86578384fd5b8035925081831115610b96578384fd5b876020604085028301011115610baa578384fd5b949760209095019650909450505050565b600060208284031215610bcc578081fd5b8151801515811461096f578182fd5b600060208284031215610bec578081fd5b5051919050565b60008251610c05818460208701610f3d565b9190910192915050565b90565b6001600160a01b0391909116815260200190565b6001600160a01b039384168152919092166020820152604081019190915260600190565b6001600160a01b03929092168252602082015260400190565b901515815260200190565b6000602082528251806020840152610c8d816040850160208701610f3d565b601f01601f19169190910160400192915050565b60208082526014908201527314185d5cd8589b194e881b9bdd081c185d5cd95960621b604082015260600190565b60208082526026908201527f4f776e61626c653a206e6577206f776e657220697320746865207a65726f206160408201526564647265737360d01b606082015260800190565b6020808252601b908201527f536166654d6174683a206164646974696f6e206f766572666c6f770000000000604082015260600190565b6020808252603a908201527f416464726573733a20756e61626c6520746f2073656e642076616c75652c207260408201527f6563697069656e74206d61792068617665207265766572746564000000000000606082015260800190565b6020808252601d908201527f416464726573733a20696e73756666696369656e742062616c616e6365000000604082015260600190565b60208082526010908201526f14185d5cd8589b194e881c185d5cd95960821b604082015260600190565b6020808252818101527f4f776e61626c653a2063616c6c6572206973206e6f7420746865206f776e6572604082015260600190565b60208082526026908201527f4361706974616c446973747269627574696f6e3a20546f6f206d75636820455460408201526512081cd95b9d60d21b606082015260800190565b6020808252601d908201527f416464726573733a2063616c6c20746f206e6f6e2d636f6e7472616374000000604082015260600190565b6020808252602a908201527f5361666545524332303a204552433230206f7065726174696f6e20646964206e6040820152691bdd081cdd58d8d9595960b21b606082015260800190565b6020808252601f908201527f5265656e7472616e637947756172643a207265656e7472616e742063616c6c00604082015260600190565b60005b83811015610f58578181015183820152602001610f40565b838111156109445750506000910152565b6001600160a01b0381168114610f7e57600080fd5b5056fea264697066735822122057a254b31e878f332274775d7d4cc2d9f8ed6559f53262b94362f7ca46e8035164736f6c63430006020033",
  "source": "//This contract is slightly modified from https://github.com/gitcoinco/BulkTransactions/edit/master/contracts/BulkCheckout.sol\n// SPDX-License-Identifier: AGPL-3.0-only\npragma solidity ^0.6.2;\npragma experimental ABIEncoderV2;\n\n/**\n * @dev We use ABIEncoderV2 to enable encoding/decoding of the array of structs. The pragma\n * is required, but ABIEncoderV2 is no longer considered experimental as of Solidity 0.6.0\n */\n\nimport \"@openzeppelin/contracts/access/Ownable.sol\";\nimport \"@openzeppelin/contracts/math/SafeMath.sol\";\nimport \"@openzeppelin/contracts/token/ERC20/IERC20.sol\";\nimport \"@openzeppelin/contracts/token/ERC20/SafeERC20.sol\";\nimport \"@openzeppelin/contracts/utils/Address.sol\";\nimport \"@openzeppelin/contracts/utils/Pausable.sol\";\nimport \"@openzeppelin/contracts/utils/ReentrancyGuard.sol\";\n\ncontract CapitalDistribution is Ownable, Pausable, ReentrancyGuard {\n    using Address for address payable;\n    using SafeMath for uint256;\n    /**\n     * @notice Placeholder token address for ETH distributions. This address is used in various other\n     * projects as a stand-in for ETH\n     */\n    address constant ETH_TOKEN_PLACHOLDER = 0xEeeeeEeeeEeEeeEeEeEeeEEEeeeeEeeeeeeeEEeE;\n\n    /**\n     * @notice Required parameters for each Distribution\n     */\n    struct Distribution {\n        uint256 amount; // amount of tokens to distribute\n        address payable dest; // grant address\n    }\n\n    /**\n     * @dev Emitted on each Distribution\n     */\n    event DistributionSent(\n        address indexed token,\n        uint256 indexed amount,\n        address dest,\n        address indexed distributor\n    );\n\n    /**\n     * @dev Emitted when a token or ETH is withdrawn from the contract\n     */\n    event TokenWithdrawn(\n        address indexed token,\n        uint256 indexed amount,\n        address indexed dest\n    );\n\n    /**\n     * @notice capaital distributions\n     * @dev We assume all token approvals were already executed\n     *@param _token address tokens in which capital distribution is being done\n     * @param _distributions Array of Distribution structs\n     */\n    function distribute(address _token, Distribution[] calldata _distributions)\n        external\n        payable\n        nonReentrant\n        whenNotPaused\n    {\n        // We track total ETH distributions to ensure msg.value is exactly correct\n        uint256 _ethdistributionTotal = 0;\n\n        for (uint256 i = 0; i < _distributions.length; i++) {\n            emit DistributionSent(\n                _token,\n                _distributions[i].amount,\n                _distributions[i].dest,\n                msg.sender\n            );\n            if (_token != ETH_TOKEN_PLACHOLDER) {\n                // Token Distribution\n                // This method throws on failure, so there is no return value to check\n                SafeERC20.safeTransferFrom(\n                    IERC20(_token),\n                    msg.sender,\n                    _distributions[i].dest,\n                    _distributions[i].amount\n                );\n            } else {\n                // ETH Distribution\n                // See comments in Address.sol for why we use sendValue over transer\n                _distributions[i].dest.sendValue(_distributions[i].amount);\n                _ethdistributionTotal = _ethdistributionTotal.add(\n                    _distributions[i].amount\n                );\n            }\n        }\n\n        // Revert if the wrong amount of ETH was sent\n        require(\n            msg.value == _ethdistributionTotal,\n            \"CapitalDistribution: Too much ETH sent\"\n        );\n    }\n\n    /**\n     * @notice Transfers all tokens of the input adress to the recipient. This is\n     * useful tokens are accidentally sent to this contrasct\n     * @param _tokenAddress address of token to send\n     * @param _dest destination address to send tokens to\n     */\n    function withdrawToken(address _tokenAddress, address _dest)\n        external\n        onlyOwner\n    {\n        uint256 _balance = IERC20(_tokenAddress).balanceOf(address(this));\n        emit TokenWithdrawn(_tokenAddress, _balance, _dest);\n        SafeERC20.safeTransfer(IERC20(_tokenAddress), _dest, _balance);\n    }\n\n    /**\n     * @notice Transfers all Ether to the specified address\n     * @param _dest destination address to send ETH to\n     */\n    function withdrawEther(address payable _dest) external onlyOwner {\n        uint256 _balance = address(this).balance;\n        emit TokenWithdrawn(ETH_TOKEN_PLACHOLDER, _balance, _dest);\n        _dest.sendValue(_balance);\n    }\n\n    /**\n     * @notice Pause contract\n     */\n    function pause() external onlyOwner whenNotPaused {\n        _pause();\n    }\n\n    /**\n     * @notice Unpause contract\n     */\n    function unpause() external onlyOwner whenPaused {\n        _unpause();\n    }\n}\n",
  "sourcePath": "C:/defi-ventures/util/captial-distribution/capitaldistribution/contracts/CapitalDistribution.sol",
  "compiler": {
    "name": "solc",
    "version": "0.6.2+commit.bacdbe57.Emscripten.clang"
  },
  "schemaVersion": "3.2.5",
  "updatedAt": "2020-11-12T04:04:26.294Z",
  "networkType": "ethereum",
  "devdoc": {
    "methods": {
      "distribute(address,(uint256,address)[])": {
        "details": "We assume all token approvals were already executed param _token address tokens in which capital distribution is being done",
        "params": {
          "_distributions": "Array of Distribution structs"
        }
      },
      "owner()": {
        "details": "Returns the address of the current owner."
      },
      "paused()": {
        "details": "Returns true if the contract is paused, and false otherwise."
      },
      "renounceOwnership()": {
        "details": "Leaves the contract without owner. It will not be possible to call `onlyOwner` functions anymore. Can only be called by the current owner.     * NOTE: Renouncing ownership will leave the contract without an owner, thereby removing any functionality that is only available to the owner."
      },
      "transferOwnership(address)": {
        "details": "Transfers ownership of the contract to a new account (`newOwner`). Can only be called by the current owner."
      },
      "withdrawEther(address)": {
        "params": {
          "_dest": "destination address to send ETH to"
        }
      },
      "withdrawToken(address,address)": {
        "params": {
          "_dest": "destination address to send tokens to",
          "_tokenAddress": "address of token to send"
        }
      }
    }
  },
  "userdoc": {
    "methods": {
      "distribute(address,(uint256,address)[])": {
        "notice": "capaital distributions"
      },
      "pause()": {
        "notice": "Pause contract"
      },
      "unpause()": {
        "notice": "Unpause contract"
      },
      "withdrawEther(address)": {
        "notice": "Transfers all Ether to the specified address"
      },
      "withdrawToken(address,address)": {
        "notice": "Transfers all tokens of the input adress to the recipient. This is useful tokens are accidentally sent to this contrasct"
      }
    }
  }
}