{
  "contractName": "SelfDestruct",
  "abi": [
    {
      "stateMutability": "payable",
      "type": "receive"
    },
    {
      "inputs": [
        {
          "internalType": "address payable",
          "name": "_dest",
          "type": "address"
        }
      ],
      "name": "forceEther",
      "outputs": [],
      "stateMutability": "nonpayable",
      "type": "function"
    }
  ],
  "bytecode": "0x6080604052348015600f57600080fd5b50609d8061001e6000396000f3fe608060405260043610601f5760003560e01c8063baec8d8014602a576025565b36602557005b600080fd5b348015603557600080fd5b50605960048036036020811015604a57600080fd5b50356001600160a01b0316605b565b005b806001600160a01b0316fffea2646970667358221220e0896b1bd2d0f4a3f304e1037c1aeaf363843735959154100543ac5209cad93d64736f6c63430006020033",
  "source": "pragma solidity ^0.6.2;\n\n\n/**\n * @notice Used for forcibly sending ETH to BulkCheckout for testing\n */\n\ncontract SelfDestruct {\n  /**\n   * @notice Self-destructs the contract to force ETH to the destination address\n   * @param _dest Address to send all ETH in the contract to\n   */\n  function forceEther(address payable _dest) external {\n    selfdestruct(_dest);\n  }\n\n  receive() external payable {}\n}\n",
  "sourcePath": "C:/defi-ventures/util/captial-distribution/capitaldistribution/contracts/test/SelfDestruct.sol",
  "compiler": {
    "name": "solc",
    "version": "0.6.2+commit.bacdbe57.Emscripten.clang"
  },
  "schemaVersion": "3.2.5",
  "updatedAt": "2020-11-12T04:03:02.305Z",
  "devdoc": {
    "methods": {
      "forceEther(address)": {
        "params": {
          "_dest": "Address to send all ETH in the contract to"
        }
      }
    }
  },
  "userdoc": {
    "methods": {
      "forceEther(address)": {
        "notice": "Self-destructs the contract to force ETH to the destination address"
      }
    },
    "notice": "Used for forcibly sending ETH to BulkCheckout for testing"
  }
}